{
  "contractName": "PrescriptionControl",
  "abi": [
    {
      "constant": true,
      "inputs": [
        {
          "name": "_receipient",
          "type": "address"
        },
        {
          "name": "index",
          "type": "uint256"
        }
      ],
      "name": "getContentsForAddress",
      "outputs": [
        {
          "name": "",
          "type": "string"
        }
      ],
      "payable": false,
      "stateMutability": "view",
      "type": "function"
    },
    {
      "constant": false,
      "inputs": [
        {
          "name": "_receipient",
          "type": "address"
        },
        {
          "name": "_contents",
          "type": "string"
        }
      ],
      "name": "issue",
      "outputs": [],
      "payable": false,
      "stateMutability": "nonpayable",
      "type": "function"
    },
    {
      "constant": true,
      "inputs": [
        {
          "name": "_receipient",
          "type": "address"
        }
      ],
      "name": "getPrescriptionsCount",
      "outputs": [
        {
          "name": "",
          "type": "uint256"
        }
      ],
      "payable": false,
      "stateMutability": "view",
      "type": "function"
    },
    {
      "constant": true,
      "inputs": [
        {
          "name": "_receipient",
          "type": "address"
        },
        {
          "name": "_id",
          "type": "uint256"
        }
      ],
      "name": "getPrescriptionContents",
      "outputs": [
        {
          "name": "",
          "type": "string"
        }
      ],
      "payable": false,
      "stateMutability": "view",
      "type": "function"
    },
    {
      "constant": false,
      "inputs": [
        {
          "name": "_receipient",
          "type": "address"
        },
        {
          "name": "_id",
          "type": "uint256"
        }
      ],
      "name": "shipPrescription",
      "outputs": [
        {
          "name": "",
          "type": "bool"
        }
      ],
      "payable": false,
      "stateMutability": "nonpayable",
      "type": "function"
    }
  ],
  "bytecode": "0x608060405234801561001057600080fd5b50610aa3806100206000396000f30060806040526004361061006d576000357c0100000000000000000000000000000000000000000000000000000000900463ffffffff16806304b444d914610072578063662ff634146100fb57806391a25335146101c1578063a42b0c4714610226578063f53b93a1146102ec575b600080fd5b34801561007e57600080fd5b506100f9600480360381019080803573ffffffffffffffffffffffffffffffffffffffff169060200190929190803590602001908201803590602001908080601f0160208091040260200160405190810160405280939291908181526020018383808284378201915050505050509192919290505050610343565b005b34801561010757600080fd5b50610146600480360381019080803573ffffffffffffffffffffffffffffffffffffffff169060200190929190803590602001909291905050506104eb565b6040518080602001828103825283818151815260200191508051906020019080838360005b8381101561018657808201518184015260208101905061016b565b50505050905090810190601f1680156101b35780820380516001836020036101000a031916815260200191505b509250505060405180910390f35b3480156101cd57600080fd5b5061020c600480360381019080803573ffffffffffffffffffffffffffffffffffffffff169060200190929190803590602001909291905050506105ea565b604051808215151515815260200191505060405180910390f35b34801561023257600080fd5b50610271600480360381019080803573ffffffffffffffffffffffffffffffffffffffff169060200190929190803590602001909291905050506106db565b6040518080602001828103825283818151815260200191508051906020019080838360005b838110156102b1578082015181840152602081019050610296565b50505050905090810190601f1680156102de5780820380516001836020036101000a031916815260200191505b509250505060405180910390f35b3480156102f857600080fd5b5061032d600480360381019080803573ffffffffffffffffffffffffffffffffffffffff1690602001909291905050506106ff565b6040518082815260200191505060405180910390f35b61034b610974565b60a0604051908101604052804381526020013373ffffffffffffffffffffffffffffffffffffffff1681526020018473ffffffffffffffffffffffffffffffffffffffff1681526020016000151581526020018381525090506000808473ffffffffffffffffffffffffffffffffffffffff1673ffffffffffffffffffffffffffffffffffffffff16815260200190815260200160002081908060018154018082558091505090600182039060005260206000209060040201600090919290919091506000820151816000015560208201518160010160006101000a81548173ffffffffffffffffffffffffffffffffffffffff021916908373ffffffffffffffffffffffffffffffffffffffff16021790555060408201518160020160006101000a81548173ffffffffffffffffffffffffffffffffffffffff021916908373ffffffffffffffffffffffffffffffffffffffff16021790555060608201518160020160146101000a81548160ff02191690831515021790555060808201518160030190805190602001906104e29291906109d2565b50505050505050565b60606000808473ffffffffffffffffffffffffffffffffffffffff1673ffffffffffffffffffffffffffffffffffffffff1681526020019081526020016000208281548110151561053857fe5b90600052602060002090600402016003018054600181600116156101000203166002900480601f0160208091040260200160405190810160405280929190818152602001828054600181600116156101000203166002900480156105dd5780601f106105b2576101008083540402835291602001916105dd565b820191906000526020600020905b8154815290600101906020018083116105c057829003601f168201915b5050505050905092915050565b6000806000806000808773ffffffffffffffffffffffffffffffffffffffff1673ffffffffffffffffffffffffffffffffffffffff1681526020019081526020016000209250600091505b82805490508210156106d157828281548110151561064f57fe5b9060005260206000209060040201905084816000015414156106c457600015158160020160149054906101000a900460ff16151514156106bf5760018160020160146101000a81548160ff0219169083151502179055508060020160149054906101000a900460ff1693506106d2565b600080fd5b8180600101925050610635565b5b50505092915050565b60606106e5610974565b6106ef848461074a565b9050806080015191505092915050565b60008060008373ffffffffffffffffffffffffffffffffffffffff1673ffffffffffffffffffffffffffffffffffffffff168152602001908152602001600020805490509050919050565b610752610974565b60008060008060008773ffffffffffffffffffffffffffffffffffffffff1673ffffffffffffffffffffffffffffffffffffffff1681526020019081526020016000209250600091505b82805490508210156109665782828154811015156107b657fe5b906000526020600020906004020190508481600001541415610959578060a06040519081016040529081600082015481526020016001820160009054906101000a900473ffffffffffffffffffffffffffffffffffffffff1673ffffffffffffffffffffffffffffffffffffffff1673ffffffffffffffffffffffffffffffffffffffff1681526020016002820160009054906101000a900473ffffffffffffffffffffffffffffffffffffffff1673ffffffffffffffffffffffffffffffffffffffff1673ffffffffffffffffffffffffffffffffffffffff1681526020016002820160149054906101000a900460ff16151515158152602001600382018054600181600116156101000203166002900480601f0160208091040260200160405190810160405280929190818152602001828054600181600116156101000203166002900480156109495780601f1061091e57610100808354040283529160200191610949565b820191906000526020600020905b81548152906001019060200180831161092c57829003601f168201915b505050505081525050935061096b565b818060010192505061079c565b600080fd5b50505092915050565b60a06040519081016040528060008152602001600073ffffffffffffffffffffffffffffffffffffffff168152602001600073ffffffffffffffffffffffffffffffffffffffff168152602001600015158152602001606081525090565b828054600181600116156101000203166002900490600052602060002090601f016020900481019282601f10610a1357805160ff1916838001178555610a41565b82800160010185558215610a41579182015b82811115610a40578251825591602001919060010190610a25565b5b509050610a4e9190610a52565b5090565b610a7491905b80821115610a70576000816000905550600101610a58565b5090565b905600a165627a7a723058208e596839ae985db0b2efc94ac9305daabd09e080d2144a19514209afd8c211a60029",
  "source": "pragma solidity^0.4.21;\n\ncontract PrescriptionControl {\n\n    struct Prescription {\n        uint id;\n        address issuer;\n        address receipient;\n        bool received;\n        string contents;\n    }\n\n    mapping (address => Prescription[]) prescriptions;\n\n    function getContentsForAddress(address _receipient, uint index) public view returns (string){\n        return prescriptions[_receipient][index].contents;\n    }\n\n    function issue(address _receipient, string _contents) public {\n        //TODO check whether issuer has rights to issue prescriptions\n        Prescription memory newPrescription = Prescription({\n           id: block.number,\n           issuer: msg.sender,\n           receipient: _receipient,\n           received: false,\n           contents: _contents\n        });\n        prescriptions[_receipient].push(newPrescription);\n    }\n\n    function getPrescriptionsCount(address _receipient) public view returns (uint) {\n        return prescriptions[_receipient].length;\n    }\n\n    function getPrescriptionContents(address _receipient, uint _id) public view returns (string) {\n        Prescription memory _prescription = findPrescription(_receipient, _id);\n        return _prescription.contents;\n    }\n\n    function findPrescription(address _receipient, uint _id) private view returns (Prescription) {\n        Prescription[] storage _prescriptions = prescriptions[_receipient];\n        uint i = 0;\n        for(i; i< _prescriptions.length; i++) {\n            Prescription storage _next= _prescriptions[i];\n            if (_next.id == _id) {\n                return _next;\n            }\n        }\n        revert();\n    }\n\n    function shipPrescription(address _receipient, uint _id) public returns (bool) {\n        //TODO check whether we have rights to shipPrescription\n        Prescription[] storage _prescriptions = prescriptions[_receipient];\n        uint i = 0;\n        for(i; i< _prescriptions.length; i++) {\n            Prescription storage _prescription= _prescriptions[i];\n            if (_prescription.id == _id) {\n                if (_prescription.received == false) {\n                    _prescription.received = true;\n                    return _prescription.received;\n                } else {\n                    //Prescription exists, but was already shipped\n                    revert();\n                }\n            }\n        }\n    }\n\n}",
  "sourcePath": "/Users/rodionaltshuler/Projects/prescription-control-truffle/contracts/PrescriptionsControl.sol",
  "compiler": {
    "name": "solc",
    "version": "0.4.24+commit.e67f0147.Emscripten.clang"
  },
  "schemaVersion": "2.0.0",
  "updatedAt": "2018-05-26T10:06:10.823Z"
}