{
  "contractName": "PrescriptionControl",
  "abi": [
    {
      "constant": false,
      "inputs": [
        {
          "name": "_receipient",
          "type": "address"
        },
        {
          "name": "_contents",
          "type": "string"
        }
      ],
      "name": "issue",
      "outputs": [],
      "payable": false,
      "stateMutability": "nonpayable",
      "type": "function"
    },
    {
      "constant": true,
      "inputs": [
        {
          "name": "_receipient",
          "type": "address"
        }
      ],
      "name": "getPrescriptionsCount",
      "outputs": [
        {
          "name": "",
          "type": "uint256"
        }
      ],
      "payable": false,
      "stateMutability": "view",
      "type": "function"
    },
    {
      "constant": true,
      "inputs": [
        {
          "name": "_receipient",
          "type": "address"
        },
        {
          "name": "_id",
          "type": "uint256"
        }
      ],
      "name": "getPrescriptionContents",
      "outputs": [
        {
          "name": "",
          "type": "string"
        }
      ],
      "payable": false,
      "stateMutability": "view",
      "type": "function"
    },
    {
      "constant": false,
      "inputs": [
        {
          "name": "_receipient",
          "type": "address"
        },
        {
          "name": "_id",
          "type": "uint256"
        }
      ],
      "name": "shipPrescription",
      "outputs": [
        {
          "name": "",
          "type": "bool"
        }
      ],
      "payable": false,
      "stateMutability": "nonpayable",
      "type": "function"
    }
  ],
  "bytecode": "0x608060405234801561001057600080fd5b506108d3806100206000396000f300608060405260043610610062576000357c0100000000000000000000000000000000000000000000000000000000900463ffffffff16806304b444d91461006757806391a25335146100f0578063a42b0c4714610155578063f53b93a11461021b575b600080fd5b34801561007357600080fd5b506100ee600480360381019080803573ffffffffffffffffffffffffffffffffffffffff169060200190929190803590602001908201803590602001908080601f0160208091040260200160405190810160405280939291908181526020018383808284378201915050505050509192919290505050610272565b005b3480156100fc57600080fd5b5061013b600480360381019080803573ffffffffffffffffffffffffffffffffffffffff1690602001909291908035906020019092919050505061041a565b604051808215151515815260200191505060405180910390f35b34801561016157600080fd5b506101a0600480360381019080803573ffffffffffffffffffffffffffffffffffffffff1690602001909291908035906020019092919050505061050b565b6040518080602001828103825283818151815260200191508051906020019080838360005b838110156101e05780820151818401526020810190506101c5565b50505050905090810190601f16801561020d5780820380516001836020036101000a031916815260200191505b509250505060405180910390f35b34801561022757600080fd5b5061025c600480360381019080803573ffffffffffffffffffffffffffffffffffffffff16906020019092919050505061052f565b6040518082815260200191505060405180910390f35b61027a6107a4565b60a0604051908101604052804381526020013373ffffffffffffffffffffffffffffffffffffffff1681526020018473ffffffffffffffffffffffffffffffffffffffff1681526020016000151581526020018381525090506000808473ffffffffffffffffffffffffffffffffffffffff1673ffffffffffffffffffffffffffffffffffffffff16815260200190815260200160002081908060018154018082558091505090600182039060005260206000209060040201600090919290919091506000820151816000015560208201518160010160006101000a81548173ffffffffffffffffffffffffffffffffffffffff021916908373ffffffffffffffffffffffffffffffffffffffff16021790555060408201518160020160006101000a81548173ffffffffffffffffffffffffffffffffffffffff021916908373ffffffffffffffffffffffffffffffffffffffff16021790555060608201518160020160146101000a81548160ff0219169083151502179055506080820151816003019080519060200190610411929190610802565b50505050505050565b6000806000806000808773ffffffffffffffffffffffffffffffffffffffff1673ffffffffffffffffffffffffffffffffffffffff1681526020019081526020016000209250600091505b828054905082101561050157828281548110151561047f57fe5b9060005260206000209060040201905084816000015414156104f457600015158160020160149054906101000a900460ff16151514156104ef5760018160020160146101000a81548160ff0219169083151502179055508060020160149054906101000a900460ff169350610502565b600080fd5b8180600101925050610465565b5b50505092915050565b60606105156107a4565b61051f848461057a565b9050806080015191505092915050565b60008060008373ffffffffffffffffffffffffffffffffffffffff1673ffffffffffffffffffffffffffffffffffffffff168152602001908152602001600020805490509050919050565b6105826107a4565b60008060008060008773ffffffffffffffffffffffffffffffffffffffff1673ffffffffffffffffffffffffffffffffffffffff1681526020019081526020016000209250600091505b82805490508210156107965782828154811015156105e657fe5b906000526020600020906004020190508481600001541415610789578060a06040519081016040529081600082015481526020016001820160009054906101000a900473ffffffffffffffffffffffffffffffffffffffff1673ffffffffffffffffffffffffffffffffffffffff1673ffffffffffffffffffffffffffffffffffffffff1681526020016002820160009054906101000a900473ffffffffffffffffffffffffffffffffffffffff1673ffffffffffffffffffffffffffffffffffffffff1673ffffffffffffffffffffffffffffffffffffffff1681526020016002820160149054906101000a900460ff16151515158152602001600382018054600181600116156101000203166002900480601f0160208091040260200160405190810160405280929190818152602001828054600181600116156101000203166002900480156107795780601f1061074e57610100808354040283529160200191610779565b820191906000526020600020905b81548152906001019060200180831161075c57829003601f168201915b505050505081525050935061079b565b81806001019250506105cc565b600080fd5b50505092915050565b60a06040519081016040528060008152602001600073ffffffffffffffffffffffffffffffffffffffff168152602001600073ffffffffffffffffffffffffffffffffffffffff168152602001600015158152602001606081525090565b828054600181600116156101000203166002900490600052602060002090601f016020900481019282601f1061084357805160ff1916838001178555610871565b82800160010185558215610871579182015b82811115610870578251825591602001919060010190610855565b5b50905061087e9190610882565b5090565b6108a491905b808211156108a0576000816000905550600101610888565b5090565b905600a165627a7a72305820e66dddbede4f05bf3297d942687e032b2c3ed2b1b1e7bab846f7a450cd58e4000029",
  "source": "pragma solidity^0.4.21;\n\ncontract PrescriptionControl {\n\n    struct Prescription {\n        uint id;\n        address issuer;\n        address receipient;\n        bool received;\n        string contents;\n    }\n\n    mapping (address => Prescription[]) prescriptions;\n\n\n    function issue(address _receipient, string _contents) public {\n        //TODO check whether issuer has rights to issue prescriptions\n        Prescription memory newPrescription = Prescription({\n           id: block.number,\n           issuer: msg.sender,\n           receipient: _receipient,\n           received: false,\n           contents: _contents\n        });\n        prescriptions[_receipient].push(newPrescription);\n    }\n\n    function getPrescriptionsCount(address _receipient) public view returns (uint) {\n        return prescriptions[_receipient].length;\n    }\n\n    function getPrescriptionContents(address _receipient, uint _id) public view returns (string) {\n        Prescription memory _prescription = findPrescription(_receipient, _id);\n        return _prescription.contents;\n    }\n\n    function findPrescription(address _receipient, uint _id) private view returns (Prescription) {\n        Prescription[] storage _prescriptions = prescriptions[_receipient];\n        uint i = 0;\n        for(i; i< _prescriptions.length; i++) {\n            Prescription storage _next= _prescriptions[i];\n            if (_next.id == _id) {\n                return _next;\n            }\n        }\n        revert();\n    }\n\n    function shipPrescription(address _receipient, uint _id) public returns (bool) {\n        //TODO check whether we have rights to shipPrescription\n        Prescription[] storage _prescriptions = prescriptions[_receipient];\n        uint i = 0;\n        for(i; i< _prescriptions.length; i++) {\n            Prescription storage _prescription= _prescriptions[i];\n            if (_prescription.id == _id) {\n                if (_prescription.received == false) {\n                    _prescription.received = true;\n                    return _prescription.received;\n                } else {\n                    //Prescription exists, but was already shipped\n                    revert();\n                }\n            }\n        }\n    }\n\n}",
  "sourcePath": "/Users/rodionaltshuler/Projects/prescription-control-truffle/contracts/PrescriptionsControl.sol",
  "compiler": {
    "name": "solc",
    "version": "0.4.24+commit.e67f0147.Emscripten.clang"
  },
  "schemaVersion": "2.0.0",
  "updatedAt": "2018-05-26T07:58:07.224Z"
}