{
  "contractName": "PrescriptionControl",
  "abi": [
    {
      "constant": true,
      "inputs": [
        {
          "name": "_receipient",
          "type": "address"
        },
        {
          "name": "index",
          "type": "uint256"
        }
      ],
      "name": "getPrescriptionForAddress",
      "outputs": [
        {
          "name": "",
          "type": "uint256"
        },
        {
          "name": "",
          "type": "address"
        },
        {
          "name": "",
          "type": "bool"
        },
        {
          "name": "",
          "type": "string"
        }
      ],
      "payable": false,
      "stateMutability": "view",
      "type": "function"
    },
    {
      "constant": true,
      "inputs": [
        {
          "name": "_receipient",
          "type": "address"
        },
        {
          "name": "index",
          "type": "uint256"
        }
      ],
      "name": "getContentsForAddress",
      "outputs": [
        {
          "name": "",
          "type": "string"
        }
      ],
      "payable": false,
      "stateMutability": "view",
      "type": "function"
    },
    {
      "constant": false,
      "inputs": [
        {
          "name": "_receipient",
          "type": "address"
        },
        {
          "name": "_contents",
          "type": "string"
        }
      ],
      "name": "issue",
      "outputs": [],
      "payable": false,
      "stateMutability": "nonpayable",
      "type": "function"
    },
    {
      "constant": true,
      "inputs": [
        {
          "name": "_receipient",
          "type": "address"
        }
      ],
      "name": "getPrescriptionsCount",
      "outputs": [
        {
          "name": "",
          "type": "uint256"
        }
      ],
      "payable": false,
      "stateMutability": "view",
      "type": "function"
    },
    {
      "constant": true,
      "inputs": [
        {
          "name": "_receipient",
          "type": "address"
        },
        {
          "name": "_id",
          "type": "uint256"
        }
      ],
      "name": "getPrescriptionContents",
      "outputs": [
        {
          "name": "",
          "type": "string"
        }
      ],
      "payable": false,
      "stateMutability": "view",
      "type": "function"
    },
    {
      "constant": false,
      "inputs": [
        {
          "name": "_receipient",
          "type": "address"
        },
        {
          "name": "_id",
          "type": "uint256"
        }
      ],
      "name": "shipPrescription",
      "outputs": [
        {
          "name": "",
          "type": "bool"
        }
      ],
      "payable": false,
      "stateMutability": "nonpayable",
      "type": "function"
    }
  ],
  "bytecode": "0x608060405234801561001057600080fd5b50610d0b806100206000396000f300608060405260043610610078576000357c0100000000000000000000000000000000000000000000000000000000900463ffffffff16806304b444d91461007d5780630566393b14610106578063662ff6341461021157806391a25335146102d7578063a42b0c471461033c578063f53b93a114610402575b600080fd5b34801561008957600080fd5b50610104600480360381019080803573ffffffffffffffffffffffffffffffffffffffff169060200190929190803590602001908201803590602001908080601f0160208091040260200160405190810160405280939291908181526020018383808284378201915050505050509192919290505050610459565b005b34801561011257600080fd5b50610151600480360381019080803573ffffffffffffffffffffffffffffffffffffffff16906020019092919080359060200190929190505050610601565b604051808581526020018473ffffffffffffffffffffffffffffffffffffffff1673ffffffffffffffffffffffffffffffffffffffff1681526020018315151515815260200180602001828103825283818151815260200191508051906020019080838360005b838110156101d35780820151818401526020810190506101b8565b50505050905090810190601f1680156102005780820380516001836020036101000a031916815260200191505b509550505050505060405180910390f35b34801561021d57600080fd5b5061025c600480360381019080803573ffffffffffffffffffffffffffffffffffffffff16906020019092919080359060200190929190505050610753565b6040518080602001828103825283818151815260200191508051906020019080838360005b8381101561029c578082015181840152602081019050610281565b50505050905090810190601f1680156102c95780820380516001836020036101000a031916815260200191505b509250505060405180910390f35b3480156102e357600080fd5b50610322600480360381019080803573ffffffffffffffffffffffffffffffffffffffff16906020019092919080359060200190929190505050610852565b604051808215151515815260200191505060405180910390f35b34801561034857600080fd5b50610387600480360381019080803573ffffffffffffffffffffffffffffffffffffffff16906020019092919080359060200190929190505050610943565b6040518080602001828103825283818151815260200191508051906020019080838360005b838110156103c75780820151818401526020810190506103ac565b50505050905090810190601f1680156103f45780820380516001836020036101000a031916815260200191505b509250505060405180910390f35b34801561040e57600080fd5b50610443600480360381019080803573ffffffffffffffffffffffffffffffffffffffff169060200190929190505050610967565b6040518082815260200191505060405180910390f35b610461610bdc565b60a0604051908101604052804381526020013373ffffffffffffffffffffffffffffffffffffffff1681526020018473ffffffffffffffffffffffffffffffffffffffff1681526020016000151581526020018381525090506000808473ffffffffffffffffffffffffffffffffffffffff1673ffffffffffffffffffffffffffffffffffffffff16815260200190815260200160002081908060018154018082558091505090600182039060005260206000209060040201600090919290919091506000820151816000015560208201518160010160006101000a81548173ffffffffffffffffffffffffffffffffffffffff021916908373ffffffffffffffffffffffffffffffffffffffff16021790555060408201518160020160006101000a81548173ffffffffffffffffffffffffffffffffffffffff021916908373ffffffffffffffffffffffffffffffffffffffff16021790555060608201518160020160146101000a81548160ff02191690831515021790555060808201518160030190805190602001906105f8929190610c3a565b50505050505050565b6000806000606060008060008873ffffffffffffffffffffffffffffffffffffffff1673ffffffffffffffffffffffffffffffffffffffff1681526020019081526020016000208681548110151561065557fe5b9060005260206000209060040201905080600001548160010160009054906101000a900473ffffffffffffffffffffffffffffffffffffffff168260020160149054906101000a900460ff1683600301808054600181600116156101000203166002900480601f01602080910402602001604051908101604052809291908181526020018280546001816001161561010002031660029004801561073a5780601f1061070f5761010080835404028352916020019161073a565b820191906000526020600020905b81548152906001019060200180831161071d57829003601f168201915b5050505050905094509450945094505092959194509250565b60606000808473ffffffffffffffffffffffffffffffffffffffff1673ffffffffffffffffffffffffffffffffffffffff168152602001908152602001600020828154811015156107a057fe5b90600052602060002090600402016003018054600181600116156101000203166002900480601f0160208091040260200160405190810160405280929190818152602001828054600181600116156101000203166002900480156108455780601f1061081a57610100808354040283529160200191610845565b820191906000526020600020905b81548152906001019060200180831161082857829003601f168201915b5050505050905092915050565b6000806000806000808773ffffffffffffffffffffffffffffffffffffffff1673ffffffffffffffffffffffffffffffffffffffff1681526020019081526020016000209250600091505b82805490508210156109395782828154811015156108b757fe5b90600052602060002090600402019050848160000154141561092c57600015158160020160149054906101000a900460ff16151514156109275760018160020160146101000a81548160ff0219169083151502179055508060020160149054906101000a900460ff16935061093a565b600080fd5b818060010192505061089d565b5b50505092915050565b606061094d610bdc565b61095784846109b2565b9050806080015191505092915050565b60008060008373ffffffffffffffffffffffffffffffffffffffff1673ffffffffffffffffffffffffffffffffffffffff168152602001908152602001600020805490509050919050565b6109ba610bdc565b60008060008060008773ffffffffffffffffffffffffffffffffffffffff1673ffffffffffffffffffffffffffffffffffffffff1681526020019081526020016000209250600091505b8280549050821015610bce578282815481101515610a1e57fe5b906000526020600020906004020190508481600001541415610bc1578060a06040519081016040529081600082015481526020016001820160009054906101000a900473ffffffffffffffffffffffffffffffffffffffff1673ffffffffffffffffffffffffffffffffffffffff1673ffffffffffffffffffffffffffffffffffffffff1681526020016002820160009054906101000a900473ffffffffffffffffffffffffffffffffffffffff1673ffffffffffffffffffffffffffffffffffffffff1673ffffffffffffffffffffffffffffffffffffffff1681526020016002820160149054906101000a900460ff16151515158152602001600382018054600181600116156101000203166002900480601f016020809104026020016040519081016040528092919081815260200182805460018160011615610100020316600290048015610bb15780601f10610b8657610100808354040283529160200191610bb1565b820191906000526020600020905b815481529060010190602001808311610b9457829003601f168201915b5050505050815250509350610bd3565b8180600101925050610a04565b600080fd5b50505092915050565b60a06040519081016040528060008152602001600073ffffffffffffffffffffffffffffffffffffffff168152602001600073ffffffffffffffffffffffffffffffffffffffff168152602001600015158152602001606081525090565b828054600181600116156101000203166002900490600052602060002090601f016020900481019282601f10610c7b57805160ff1916838001178555610ca9565b82800160010185558215610ca9579182015b82811115610ca8578251825591602001919060010190610c8d565b5b509050610cb69190610cba565b5090565b610cdc91905b80821115610cd8576000816000905550600101610cc0565b5090565b905600a165627a7a723058203f8f5691302d5d3e623eab74084a753fd2d4e77bfb91ccee06e95745083b80db0029",
  "source": "pragma solidity^0.4.21;\n\ncontract PrescriptionControl {\n\n    struct Prescription {\n        uint id;\n        address issuer;\n        address receipient;\n        bool received;\n        string contents;\n    }\n\n    mapping (address => Prescription[]) prescriptions;\n\n    function getPrescriptionForAddress(address _receipient, uint index) public view returns (uint, address, bool, string) {\n        Prescription item = prescriptions[_receipient][index];\n        return (item.id, item.issuer, item.received, item.contents);\n    }\n\n    function getContentsForAddress(address _receipient, uint index) public view returns (string){\n        return prescriptions[_receipient][index].contents;\n    }\n\n    function issue(address _receipient, string _contents) public {\n        //TODO check whether issuer has rights to issue prescriptions\n        Prescription memory newPrescription = Prescription({\n           id: block.number,\n           issuer: msg.sender,\n           receipient: _receipient,\n           received: false,\n           contents: _contents\n        });\n        prescriptions[_receipient].push(newPrescription);\n    }\n\n    function getPrescriptionsCount(address _receipient) public view returns (uint) {\n        return prescriptions[_receipient].length;\n    }\n\n    function getPrescriptionContents(address _receipient, uint _id) public view returns (string) {\n        Prescription memory _prescription = findPrescription(_receipient, _id);\n        return _prescription.contents;\n    }\n\n    function findPrescription(address _receipient, uint _id) private view returns (Prescription) {\n        Prescription[] storage _prescriptions = prescriptions[_receipient];\n        uint i = 0;\n        for(i; i< _prescriptions.length; i++) {\n            Prescription storage _next= _prescriptions[i];\n            if (_next.id == _id) {\n                return _next;\n            }\n        }\n        revert();\n    }\n\n    function shipPrescription(address _receipient, uint _id) public returns (bool) {\n        //TODO check whether we have rights to shipPrescription\n        Prescription[] storage _prescriptions = prescriptions[_receipient];\n        uint i = 0;\n        for(i; i< _prescriptions.length; i++) {\n            Prescription storage _prescription= _prescriptions[i];\n            if (_prescription.id == _id) {\n                if (_prescription.received == false) {\n                    _prescription.received = true;\n                    return _prescription.received;\n                } else {\n                    //Prescription exists, but was already shipped\n                    revert();\n                }\n            }\n        }\n    }\n\n}",
  "sourcePath": "/Users/rodionaltshuler/Projects/prescription-control-truffle/contracts/PrescriptionsControl.sol",
  "compiler": {
    "name": "solc",
    "version": "0.4.24+commit.e67f0147.Emscripten.clang"
  },
  "schemaVersion": "2.0.0",
  "updatedAt": "2018-05-28T06:01:06.375Z"
}